:400000000008002011000000D9090000D909000010B500F0BBFE00F001FDC04610B5194C12232360182000F03BFE0022164B1A60164B1749196080204000164908601649E1
:400040001960FE2000021549086015491960982080011449086014491960144B1A604123134A1360134A13600133134A1360134A13604022124B1A600332124B1A6011234C
:40008000236010BD30001040040301400000014041FF00800803014042FF00800003014040FF00800C03014043FF0080280003401801014014010140100101400C0101404A
:4000C000080101400001014010B572B6BB22164B1A60223A154B1A60154A164B1A60164A164B1A606022164B1A60573A154B1A60D732154B1A600223144A1360B221FF3180
:40010000134A1160134A1360C0225200124B1A60313AFF3A114B1A60114A124B1A60FFF77DFF00F053FC10BD000002400001024000EE08080003024020000300600106405A
:400140000000044008000440180004400001044008010440180104400802044000030440806D18000803044010B5064C2378002B07D1054B002B02D0044800E000BF0123AA
:40018000237010BD000100200000000000310000084B10B5002B03D00749084800E000BF07480368002B00D110BD064B002BFBD09847F9E700000000040100200031000059
:4001C000800000200000000070B50749012200230C684D6812196B410A604B6001F082F8012001F045F870BD2001002010B5054B188900F05BFE00F097FF012000F0B8FE1B
:4002000010BDC0462001002010B5054B588900F0D5FD00F0C7FF012000F032FE10BDC0462001002070B50F4B1C6823070ED50E4B1B685B0707D50D4B1D6801F07FF9C1B204
:40024000280000F09DFA0422074B1A60630708D5074B1C68A30502D5002000F00FFF044B1C6070BD000E0840C00F084054010020800F0840F0B5474680B488B0714800F02B
:4002800045FF032000F020FF6F4800F07DFF032000F058FF00F05CFE00F0E2FD00F0DEFE01F044F8694801F051F8694801F00CF8032000F0E9FF00F0CBFF62B600F066FE77
:4002C00000F0FEF80690012000F010FA614B1860614B5C681B6802930394049305945D4B1868002100F062FB012851D1594E00220021306800F064FB0221306800F056FB46
:4003000001F072FF071C0121306800F04FFB01F06BFF051C0421306800F048FB01F064FF041C0321306800F041FB01F05DFF07904A49201C01F010FC041C4849281C01F0E6
:400340000BFC051C4549381C01F006FC071C4349079801F001FC0090231C2A1C391C069800F092F93068052100F020FB00280FD0384B1868052100F019FB87239B005843E4
:40038000E121090101F0ACF90100069800F0AAF8314E304B1868316800F008FAFA2464000025029A039BA4185D4132687368AB4202D80BD1A24209D900F078FE0300584249
:4003C0005841C0B200F066FE0294039519240025049A059BA4185D411F4B1A6890465B68AB4204D800D07AE7A24200D877E700F0CDFD02004146069E300000F0FFF83000AF
:4004000000F06AF800280FDD134B9846002342465381300000F060F8C317C018584043461881049405955AE7069800F055F8C317C0185840084B588100221A810494059504
:400440004DE7C046ED0100000902000025020000C9010000540100202001002000007A4410B5C16041608160016000220261002343618361C2610D494162FF2189050162BE
:400480008362C3620363FE2189054163084C8463084C0464084CC46343648364C364074B036541655823C25410BDC04617B751390000484417B7D13800004040D6B9723A1A
:4004C00070B505005C2002F09DFD04002900FFF7C7FF200070BDC04610B5406901F01AFE10BDC04603689C46614401607047C0465823C35C002B03D103684360012001E08B
:40050000012040427047C046F0B583B007000E1C141CFE218905101C01F094F9002806D13449201C01F07AF9002804D002E0FE24A40500E02F4C3968201C01F0D7FC051CE9
:40054000B968201C01F092F902F032FC00222A4B02F0B4F900900191786802F029FC009A019B02F0ABF900900191301C02F020FC009A019B02F0A2F900900191F86802F0B4
:4005800017FC009A019B01F06DFE02F065FC061C011C281C01F06AF9051CBC60FE21890501F050F9002806D11249281C01F036F9002804D002E0FE25AD0500E00D4DFE217E
:4005C0008905301C01F03EF9002806D10949301C01F024F9002804D002E0FE26B60500E0044EFE603D61B969281C01F07FFC03B0F0BDC046000080BF0000E03F70B50400A4
:4006000016000069884203D921610120404236E0081A01F0E9FD1A4901F09EFA051CE368B34208D2F21A17498A4204D9E66026600220404223E0B34208D99B1B114A9342F6
:4006400004D9E66026600220404218E0291C2000FFF74EFF6368981B01F07EFD216D01F045FC021C20003C30291CFFF74DFF021C20002030291CFFF747FF6061012070BD94
:4006800000007A44FF0F00000364009BC36341620262704700230370438003E0C2180021117101331D2BF9DD7047C04610B50400002303710360417104E05A00A218002132
:4006C000D1800133092BF8DD20002030FFF7E2FF20004230FFF7DEFF0023636602216822A152A377E3776383A38310BD70B505006C2002F087FC04002900FFF7D7FF2000A3
:4007000070BDC04670B500260B4B0FE08C5D6340082408E0DD0704D55B08084D6B409BB200E05B08013C002CF4D101369642EDDB83771B0AC37770BDFFFF000001A0FFFF7E
:4007400010B5040042792423C2542333C35C802252421343A53283542623C15401002431223AFFF7CFFFA27F2723E254E27F0133E254233B638401221B33E25410BDC046EA
:4007800070B504000D000379002B02D0012B05D00BE04230FFF77EFF012323714421635AE218463215700133635270BD70B505000379042B00D9E0E09B007B4AD3589F46F4
:4007C0004166DAE0436E5A1D914201D902220271994206D36823EA5A243BEB5A9A4200D1CBE069664423EA5A2433EA52C5E04623C25C43799A4202D103230371BDE00023AF
:400800000371BAE04424025B023A92B201004631FFF778FF2A5B931EEB1846331978AB7F994209D1013AAA1846321278EB7F9A4202D104232B71A0E004212800FFF780FF41
:4008400000232B7199E04723C35C032B4AD14822805C00020132AA5C104368834A22A95C09020132AA5C1143A983020008180A2804DD02212800FFF763FF7CE06E79242417
:400880002E5501342B5549002623E954233B6B840FE06B8C51006918CC88E9182431260A0E7001339BB2E91824310C7001336B8401328242EDDB2900243105222800FFF7DC
:4008C00021FF6B8CA97FEA182432117001339BB2E97FEA182432117001336B8401222023EA5448E0062B43D14822805C02024921695C0A436A830124AC83541C0A2C04DD5C
:4009000002212800FFF71CFF35E06E7924242E5501342B552623E8540133E954233B6B844633EB5C19024B23EB5C0B435200AA18D3801B0A28216B54D2882923EA54233BE8
:400940006B842900243105222800FFF7DBFE6B8CA97FEA182432117001339BB2E97FEA182432117001336B8401222023EA5402E00121FFF7E5FE00232B712023EB5C012B19
:4009800011D1012000F07AFB002405E02B192433187800F00FFD01346B8C9C42F6DB28002030FFF777FE70BD04310000092903D849004118C88800E000487047FFFF0000A3
:4009C000092902D849004118CA8070471022014B1A607047A8020B4010B502F0E7FA03680C2B00D1FEE7FEE710B50300094A1068C318094A9A1A902149008A4202DC054A67
:400A0000136005E002F0D2FA0C2303600120404210BDC04684000020F001002070B50F4E0F4D13E029686B68AC68002202E001C901C30432A242FAD1E868002202E00021AE
:400A400002C304328242FAD11035013E002EE9D102F0B2FAFFF70EFCFEE7C046010000004032000010B500230AE0032B03D89A000849505800E008489900084A88500133EF
:400A80001F2BF2D9FFF720FB80229205044B1A6010BDC04600000000D90900000000002008ED00E00C4B1B689B001C22134018330A4A1268920803210A40D3400849086869
:400AC000084A02400A60084A944663441B78DBB2064A13607047C046080F03402800034000000740FFFFFFBFCDF1FF0F0C0F0340034B18688023DB05184000D00120704742
:400B0000000007401F2318401E3B8340014A13607047C04600E100E01F2318401E3B8340014A13607047C04680E100E001BE704770B504000D000F2802D90020FFF7F6FF41
:400B40001034A40080239B059C4664442068256070BDC04670B504000E00032902D90020FFF7E4FF0F2C02D90020FFF7DFFF03252540ED00063500F010FDA408A400074BEB
:400B80009C46644421680323AB4099430B003100A9401943216000F004FD70BD00E400E010B5040006E0084B586800F0EDFC074B9C46644480231B029C42F4D8024B986823
:400BC000604300F0E1FC10BD880000200080FFFF70B582B000F0D0F800284DD000F0DDFC0500264B1A6892001C231A401832244B1B689B0803210B40DA400021214B1960E4
:400C0000214C2168214B0B4021494A438021C9018C466244D20B013A5205520D1343A0225203134323601B4B1B680193302000F0BBFC194A13688021C9050B431360266809
:400C4000164B1E40002407E00120FFF7A9FF1034A30533430C4A1360EE2CF5D90120FFF79FFFFF239B051E43074B1E60019A094B1A60280000F095FC02B070BD080F0340E5
:400C8000280003400C0F03400800074000F800C040420F003000104000000740FFFF3FC0F0B583B0040018280BD01C2809D0202807D0242805D0282803D02C2801D030281B
:400CC00049D100F06AFC0190FFF712FF002803D0FFF7E8FE012600E00026214A136807218B4313601F4BE3181B78DBB21E4A13601E4A13688B4313601D4803687F229343CE
:400D000019001C4BE3181B7813400B430360322000F03AFC182C16D9114F3B680725AB431A0023001C3B9B082B4013433B60322000F02AFC3A68AA432300183B9B082C000A
:400D40001C4014433C60012E01D1FFF741FF019800F027FC02E00020FFF7E8FE03B0F0BD080F0340CDF1FF0F0C0F0340100F0340180F0340B4F1FF0F034B1B68002B01DA29
:400D8000012000E00020704700000740014A024B1A6070476588EDAC380003400004000C014B18607047C046C80106400004000C014B18607047C046D40106400004000CEE
:400DC000014B18607047C046CC01064070B504000D0000F0E2FBAC40024B1C6000F0E1FB70BDC0460800064010B500F0D6FB064A116808230B43136000F0D3FB1821082000
:400E0000FFF7E4FF10BDC04600000640014B18607047C046F801064010B50E4C8023DB042360236823600020FFF7B8FF236823600C22094B1A600120FFF7E8FF3122074B54
:400E40001A60C8208000FFF7B1FF0020FFF7B6FF10BDC046C0010640E4010640E801064010B5064B1B78002B04D1FFF7D5FF0122024B1A70FFF7B8FF10BDC04639010020A4
:400E8000014B18607047C046F00106400004000C014B18607047C046880106400004000C014B18607047C046940106400004000C014B18607047C0468C01064070B5040021
:400EC0000D0000F06AFBAC40024B1C6000F069FB70BDC0460800064010B500F05EFB064A116804230B43136000F05BFB18210420FFF7E4FF10BDC04600000640014B1860EE
:400F00007047C046B801064010B50E4C8023DB042360236823600020FFF7B8FF236823600C22094B1A600120FFF7E8FF3122074B1A60C8208000FFF7B1FF0020FFF7B6FFF6
:400F400010BDC04680010640A4010640A801064010B5064B1B78002B04D1FFF7D5FF0122024B1A70FFF7B8FF10BDC0463A010020014B18607047C046B00106400004000C2D
:400F8000014B18607047C04648010640024B18680004000C7047C0464801064010B5040000F0FBFA054B1968054A0A401A601A6814431C6000F0F5FA10BDC04640010640D8
:400FC000FFFFFCFF0004000C014B18607047C0465401064070B504000D0000F0DEFAAC40024B1C6000F0DDFA70BDC0460800064010B500F0D2FA064A116802230B431360A1
:4010000000F0CFFA08210220FFF7E4FF10BDC04600000640014B18607047C0467801064010B5C02292040B4B1A60C32292000A4B1A600120FFF7EEFF80204002FFF7AEFF9E
:40104000802424022000FFF7BDFF2000FFF796FF10BDC046400106406401064010B5064B1B78002B04D1FFF7DBFF0122024B1A70FFF7BEFF10BDC0463B01002004490A6810
:40108000D2B204239A43800018401043086070470001044004490A68D2B204239A438000184010430860704700020440024B1868800801231840704704020440014B586765
:4010C0007047C0460000002010B5040000F065FA044A1168044B0B40A4031C43146000F060FA10BD0CE400E0FF3FFFFF80229201014B1A607047C04600E100E0802292014F
:40110000014B1A607047C04680E100E010B50400FFF7F4FF2000FFF7D1FF0320FFF7D4FFFFF7E4FF10BDC04680229201014B1A607047C04680E200E0014B98677047C046B9
:401140000000002010B5040000F027FA044A1168044B0B40A4051C43146000F022FA10BD0CE400E0FFFF3FFF8022D201014B1A607047C04600E100E08022D201014B1A60BF
:401180007047C04680E100E010B50400FFF7F4FF2000FFF7D1FF0320FFF7D4FFFFF7E4FF10BDC0468022D201014B1A607047C04680E200E00004000C014B18607047C04636
:4011C000080106400004000C014B18607047C0461401064070B504000D0000F0DEF9AC40024B1C6000F0DDF970BDC0460800064010B500F0D2F9064A116801230B4313608D
:4012000000F0CFF918210120FFF7E4FF10BDC04600000640014B18607047C0463801064010B580229204074B1A600C22064B1A600120FFF7EFFF0548FFF7C4FF0020FFF7C7
:40124000B9FF10BD0001064024010640DF2E000010B5064B1B78002B04D1FFF7E1FF0122024B1A70FFF7C4FF10BDC0463C010020014B18607047C04630010640014BD86646
:401280007047C0460000002010B5040000F085F9044A13689B009B08A4071C43146000F080F910BD08E400E080221201014B1A607047C04600E100E080221201014B1A601F
:4012C0007047C04680E100E010B50400FFF7F4FF2000FFF7D3FF0320FFF7D6FFFFF7E4FF10BDC04680221201014B1A607047C04680E200E010B50720FFF704FC10BDC0468D
:4013000010B500F009F910BD10B500F08BF810BD10B5054A1368802109060B431360FFF7E9FFFFF7EDFF10BD0000084010B5064B1B78002B04D1FFF7E7FF0122024B1A70D0
:40134000FFF7E6FF10BDC04640010020014B58607047C04640010020094B1A68094B1B689A420BD0074B1B680133412B00D10023054AD05CC0B2034A136000E0002070470B
:40138000E801002060010020A4010020074B1B68074A1268934203D3054A1068181A04E0034A10681B1A413318007047E801002060010020144B1A68144B1B689A4208D177
:4013C000134B1B681F221340102B02D0114B186019E00D4B1A680132402A00D100220B4B1B689A42FBD002230B490B60C0B20B49885405490A600A4A1268134203D1084A2D
:4014000011680B43136070475C010020580100200802084040020840800F084064010020880F084070B5214A214B1A600024214B1C60214A214B1A60214A224B1A60072260
:40144000214B1A60214B1C601A32214B1A60214A214B1A60214B1C600425214B1D600720FFF75AFB03210720FFF774FB1D490720FFF75EFB1C4B1C601C4B1C601C4B1C607A
:401480001C4B1C601C4B1D601C4B802292001A601A681B4B1A801B4B1C601B4B1C601B4B1C701B4B1C601B4B1C6070BD0F080002000008404000084021000A004800084083
:4014C000070200800003084004030840100308404400084007000080000208400402084050000840FD150000880E0840C80E0840480F0840080F0840C80F0840880F084021
:4015000048010020E801002060010020E50100205C0100205801002005490B68F0229343603A13430B60034B1A88034B1A6070470001024048010020880F084010B50720D2
:40154000FFF7EAFAFFF722FF002806D00720FFF7D9FAFFF701FF040007E0094B1C680422084B1A600720FFF7CDFA064B1868D82292001A600002D8239B021840204310BD03
:4015800040030840C00F08400230800803D001300238FCD1C046C0467047EFF3108072B6704780F31088704770B50400FFF7F5FF0500102C05D8104A136803218B43136083
:4015C00016E0202C07D80C490B6803229343023A13430B600CE0302C07D807490B6803229343013A13430B6002E00020FFF79EFA2800FFF7D6FF70BD3000104010B5274BC2
:401600001B68002B00D09847254B1B685B071DD5244B1B680133412B00D10023224A1268934205D1214B1B682022214B1A7006E01E4A1268D2B21F49CA541A4A13601E4BB6
:401640001B68DB06E4D104221C4B1A601C4B1B689B0721D51B4B1A681B4B1B689A4213D0194B1B680133402B00D10023174AD25CD2B217490A60144A1360164B1B681F22EB
:401680001340102BE6D104E0134A136802218B4313600222114B1A6010BDC04644010020CC0F0840E80100206001002040030840E5010020A401002008030840C00F084026
:4016C0008C0F08405C01002058010020640100204002084008020840880F0840800F0840002243088B4274D303098B425FD3030A8B4244D3030B8B4228D3030C8B420DD3EB
:40170000FF22090212BA030C8B4202D31212090265D0030B8B4219D300E0090AC30B8B4201D3CB03C01A5241830B8B4201D38B03C01A5241430B8B4201D34B03C01A524164
:40174000030B8B4201D30B03C01A5241C30A8B4201D3CB02C01A5241830A8B4201D38B02C01A5241430A8B4201D34B02C01A5241030A8B4201D30B02C01A5241CDD2C30934
:401780008B4201D3CB01C01A524183098B4201D38B01C01A524143098B4201D34B01C01A524103098B4201D30B01C01A5241C3088B4201D3CB00C01A524183088B4201D38D
:4017C0008B00C01A524143088B4201D34B00C01A5241411A00D20146524110467047FFE701B5002000F006F802BDC0460029F7D076E770477047C0468446081C6146FFE78E
:401800001FB500F02FFB002801D40021C8421FBD10B500F0BBFA4042013010BD10B500F021FB002801DB002010BD012010BDC04610B500F017FB002801DD002010BD01203B
:4018400010BDC04610B500F0C9FA002801DC002010BD012010BDC04610B500F0BFFA002801DA002010BD012010BDC046F8B54A02430244004E00C50F240E28009B09360EFF
:40188000C90F92098D4259D0A01B002800DC8DE0002E1AD1002A00D079E05A0704D00F221A40042A00D004335A0138D50134FF2C00D189E028009B015B0AE4B25B02E40529
:4018C0005B0A2343C0071843F8BDFF2CE5D08021C9040A431B2800DD89E016002021C640081A8240511E8A4132439B1A5A0114D59B019E09300001F03BFB053886408442D6
:4019000065DC041B330020200134E340041BA640721E964100243343BFE75A07BFD1DF082800FF2C2FD1002F00D187E08022D20313003B435B025B0AFF24BFE7A11B0029C6
:4019400049DD002E29D0FF2CA7D08026F60432431B2900DD8DE017002026CF40711A8A40511E8A413A439B185A01D6D50134FF2C64D0012276491A405B080B4013438CE75D
:40198000031ECAD100207B025B0AE4B296E701380028AAD0FF2C9DD17FE7002A00D17CE701390029DFD0FF2CD2D176E7002820D1601CC0B2012853DD80279E1AFF043740A8
:4019C0002FD0D61A0D0095E72800002376E7614B241A334061E700294DD1611CCEB2012E2FDDFF292AD09B185B080C0055E701227BE7002C1BD1002B5BD0C04300280CD029
:401A0000FF2E7ED01B2800DD92E01D002024C540201A8340581E83412B43D31A34000D0064E7002E00D065E700200024ABE7FF2E67D08024E40440422343E3E7FF2400230D
:401A40003CE7002C61D1002B7ED0002A00D124E79B185A0100D460E73E4A0C0013401CE7002C1ED1002B2FD1002A66D013000D0013E7012277E7002C1FD1002B5AD0C94395
:401A800000290BD0FF2E50D01B295FDC1F002024CF40611A8B40591E8B413B439B18340062E7002B1CD1002A4AD013000D00FF24F3E6130034000D00EFE6FF2E35D0802436
:401AC000E40449422343DFE7002A00D1E5E68027981AFF04074000D152E7D31A0D00DCE6FF24002A00D1D8E68020DB08C003034204D0D208024201D113000D00DB00FF24CF
:401B0000CBE61300FF240D00C7E6002B0DD0FF24002A00D1C1E68021DB08C9030B42EDD0D2080A42EAD11300E8E71300FF24B4E6012372E713003400AFE60027002022E7A1
:401B400080270020FF03F1E61300A6E60123A5E7FFFFFF7DFFFFFFFBF0B5564644465F464D46F0B444024600C70F83B08846650A360EBA463DD0FF2E22D00023EC00802567
:401B800099469B46ED0425437F3E43465C025800DB0F640A000E984636D0FF2830D080230021E400DB041C437F38301A0190484642460843724E800030587A401300874664
:401BC000002D44D108239946063B9B46DDE70122FF2000241A406402C305640AD2071C431443200003B03CBC90469946A246AB46F0BD002D20D104239946033B9B46C4E7D4
:401C0000002C17D1022102E0002C0AD10121321A01924A4643460A435A48920082587B409746200001F0A4F9431F76309C4040420021BAE70321B8E7280001F099F9431FD1
:401C40009D4000237630464299469B469DE70C239946093B9B4698E780240022E403FF20B9E70024C2468B465A465346022AAED0032A7DD0012A31D1012200201A4000248C
:401C8000A9E70122101A1B2856DD1A4000200024A1E78023DB031D424BD18023DB032B435C02640A3A00FF2095E76D016001854230D2019A0024013A01921B22012729006C
:401CC00064006D00002901DBA84201D82D1A3C43013A002AF3D16A1E95412C4301987F300028CEDD620704D00F222240042A00D00434220103D5244A019814408030FE2842
:401D000000DD64E70122A401640AC0B21A4062E72C00A9E72D1A1A220124CFE76B02BCD500248023DB031C436402640A4246FF2051E71C42B3D1F4E721002022C140101A16
:401D40008440621E94410C43620704D00F222240042A00D00434620104D5012201201A40002438E70122A401640A1A40002032E78023DB031C436402640A5246FF202AE793
:401D80001831000058310000FFFFFFF7430270B542004C005D0AC30F4802120E460A240EC90FFF2A0FD0FF2C11D00120A24200D070BDB542FCD18B420DD0002AF8D12800C9
:401DC000431E9841F4E70120002DF1D1EBE70120002EEDD1E9E70020EAE7C0464302F0B542005D0AC30F4802440A4800120E000EC90FFF2A1FD0FF2822D0002A09D16E42E8
:401E00006E4100280FD1002C0DD10020002D09D005E0002801D1002C01D08B4213D0584201231843F0BD002EF7D048424141012049420843F6E7002DDDD002204042F1E73E
:401E4000002CDAD0F9E78242E9DC04DBA542E6D80020A542E6D25842434101205B421843E0E7C0464302F0B542004C005E0AC30F4802120E450A240EC90FFF2A17D0FF2C2C
:401E800019D0002A0BD170427041002C17D0002807D048424141012049420843F0BD002C13D08B4214D0584201231843F6E70220002EF3D1E3E70220002DEFD1E1E7002D76
:401EC000E5D10020002EE9D0EDE7002DE9D1EAE7A242E8DC04DBAE42E5D80020AE42DDD25842434101205B421843D7E7F0B557464E4645464300E0B446028846760A1F0EB6
:401F0000C40F002F47D0FF2F25D0002380259A469946F600ED042E437F3F434642465D02D20F5B006D0A1B0E904640D0FF2B39D080220020ED00D20415437F3BFB18424631
:401F40005746591C62408C4607430F2F5CD86F49BF00C9598F46002E45D108239A46063B9946DAE7424602282DD0032800D1C3E0012800D0A2E0002500260240D4B276022D
:401F8000ED05760A2E43E407264330001CBC90469946A246F0BD002E1AD104239A46033B9946BAE72A00511E8A41901CC6E70120002DC3D0280000F0DBFF431F76309D4045
:401FC00043420020BAE70124FF2514400026D6E7300000F0CDFF431F9E400023763047429A46994699E70C239A46093B994694E780260024F603FF25C1E735004846B2E7C6
:40200000350022004846AEE72904090C0800370C3604360C2C0C7943704367437443060C64183619B14203D980214902884647440004000C310409188D01681E8541890E4D
:402040002943350CED19AD010D43290104D5012369081D4063460D4319007F31002925DD680704D00F202840042800D00435280103D5274980330D401900FE29A3DC012469
:40208000AD016E0A1440CDB279E78020C003064207D0054205D128434602760A4446FF256DE706437602760AFF2568E70124611A1B2905DD14400025002660E76346CBE738
:4020C0002E002023CE40591A8D406B1E9D412E43730704D00F233340042B00D00436730104D5012401251440002648E70124B601760A1440002542E780260124F6032E43A9
:402100007602760A1440FF2539E7C04698310000FFFFFFF74302590A4300C20F1B0E00207E2B0EDD9D2B0DDC802000040143952B0BDC9620C31AD9400B005842002A00D127
:4021400018007047034BD018FBE7963B99400B00F3E7C046FFFFFF7F70B5002830D0C317C5185D40C40F280000F002FF9E231B1A962B0DDC9622D21A95406A02520AD8B26F
:402180005202C005520AE40702432243100070BD992B19DC9922D21A9540124A2A40690704D00F210D40042D00D00432510103D50C4B1A409F231B1A9201520AD8B2DFE7D4
:4021C000002400200022DBE705222E00121AB921D6402A00C91A8A40551EAA4135001543DBE7C046FFFFFFFB70B5041E28D000F0BFFE9E231B1A962B0ADC9622D21A9440C3
:402200006202520AD8B25202520AC005104370BD992B18DC9922D21A9440114A2240610704D00F210C40042C00D00432510103D50B4B1A409F231B1A9201520AD8B2E2E76E
:4022400000200022DFE705222500121AB921D5402200C91A8A40541EA2412C001443DCE7FFFFFFFBF8B556465F464D464446F0B40F00FD0FAA4609037C002E005F00450F6A
:40228000490A7F0D2943C5001803BC46400A570F640DDB0F3843D2009A4500D1AAE06646A61B002E00DCFFE06346002B39D10300134300D0D9E06B0709D00F232B40042B32
:4022C00005D02B1DAB42AD416D4249191D000B0200D482E0CA4B01349C4200D1FEE00A005646C84BED081A405007640552020543120B640D002112030B0D1B056405120BB8
:402300001A436308C04CF60714401C43640064083443280021003CBC90469946A246AB46F8BDB74B9C42C6D080231B041843382E00DDEBE01F2E00DD1EE120239B1B9C46A9
:4023400003006746BB40984613004746F3403B436746BA40571EBA4113430200F240EB1A9D42B6411D008A1A7642911B0B0231D54A02560A002E00D1B4E0300000F0F8FD7B
:402380000300083B1F2B00DDB5E020222900D21AD1409E400A009D4032439C4200DDB1E01C1B631C1F2B00DDD5E0202114002800C91A8C40D8408D400443DA40681E8541DD
:4023C00011002543002476E74146314300D134E2310045466B0700D06FE756464807ED08C9080543864B9C4235D00A036405120B640D7FE76346E31A9B46002B00DC8BE09D
:402400006746002F3CD07E4FBC4200D153E780273F0438435B46382B00DCF7E00243501E82410020D2B253194218AB4289411D00494289180B02CDD5714B01349C4200D193
:402440003DE101206F4A6B080A4028401843D507054351082FE72B000B4300D1CBE180231B030B431A03120B44E7013E002E6DD1AE1AB5429B41091A5B42C91A350075E76D
:402480000700174300D116E701235B429C46E3445B46002B00D0E0E0AA18AA429B4109185B4259181500C5E7002E75D1661C7605760D012E00DCF3E0AE1AB0464545BF4133
:4024C0000E1A7F42F61B370200D48FE0551BAA42B641411A76428E1B9A464BE756460022002507E7280000F043FD20300300083B1F2B00DC49E72A002838824000259C42E1
:4025000000DC4DE73F49E41A1140D4E60243501E8241D3B2002222E7002B00D0F3E0631C9C465B055B0D012B00DC9FE0344B9C4500D1C3E0AA180918AA4280414042411817
:40254000CD075208154349086446B4E62C4B9C4200D0ECE6AFE611001F3CE1400C00202B00D17FE04021CB1A9A4015436A1E95410021254300242DE733000700203BDF4055
:402580003B00202E70D04027BE1BB0400243501E824113430022E2E6002C4FD0184CA44500D1ABE08024240476422143382E00DDDFE01F2E00DD43E12027BC1BA1460C002F
:4025C0004F46BC40A0462C004746F4403C434F46BD406F1EBD41F1402C43151BAA429241411A5242891A64469A46BFE641464546314300D0BEE6002600240025F2E6C04644
:40260000FF070000FFFF7FFFFFFF0F801F2B59DC2027FF1ABC46070063469F405B46B9461700DF40B8464F4643461F4363469A40531E9A415B463A43D840F4E60C002C436D
:402640005CD0F643002E55D1551BAA42A441411A6442091B9A46644688E6964FBC4200D0D8E628E6002280E700208FE70B002B43002C00D0C2E0002B00D101E10300134357
:4026800000D118E6AB18AB42B6410918764271180A0200D409E1884A1D00114064460AE6002C5BD10E002E4300D08AE00100114300D1C2E0010015009A46FCE56446002123
:4026C00000258FE620235B429C46DC4463460700DF405B46BC46202B00D1ACE040235F46DB1B98400243501E8241634613431A00002098E66F4CA44500D057E70100150079
:4027000064469A46D7E5002C39D10C002C436ED0DB43002B1AD0674CA44568D0382B00DDA4E01F2B00DDAEE020240F00E41AA740B9462F00DF40B846A3464F4644462743EF
:402740005C46A5406C1EA541D9403D43AD1895429B4109185B42591864466BE60C002C4315D1010011437BD0010015009A46514CA1E50D43691E8D410021ECB22DE74D4CFC
:40278000A44534D0802424045B422143C6E7040014434ED0ED084C072C438025C9082D03294208D0C6082E4205D1D208410711430C009A463100620FC900E50011433D4CF6
:4027C00079E50600164300D175E5AE1AB0464545BF410E1A7F42F61B370200D4F4E5551BAA42B641411A7642891B9A4663E50100150064465FE5002200257BE5002B3BD0B6
:402800000300134315D0ED084B072B438025C9082D03294207D0C4082C4204D141070B002100D2081343C9005A0F1143DD00214C41E5204C3FE5002054E700260025D1E528
:4028400034000F00203CE7403C00202E2BD04027BE1BB1400D43691E8D4100212C43BCE6802100260903134C0025BBE50D43691E8D410021EDB269E7010015000D4C1AE5EB
:402880000100150017E51C000F00203CE7403C00202B0CD04027FB1A99400D43691E8D410021254352E70021D4E71D0092E50021F3E7C046FF070000FFFF7FFFF0B55F46FC
:4028C00056464D464446F0B40D0399464E002B0B87B00700924680469B46760DCC0F002E69D06D4B9E4235D05B468022DD001204430F13432B439B46C3009846674B002742
:402900009C460023664401934A4615035000D20F53462D0B400D914600D176E05E4A90426CD080225B0F120413435C4AED0094461D4353460022DB00604449463618701CC1
:402940006140029017430F2F00D9AFE05448BF00C759BF465B461F4300D088E000239B469846023308270193CEE74946022A6AD0032A00D109E2012A00D0BBE111400022F2
:40298000002300259046CCB200212D030A0D12052D0B1543434A1B0515401D436D00E4076D0825434046290007B03CBC90469946A246AB46F0BD034352D05B46002B00D137
:4029C0008AE1584600F0D4FA03000B3B1C2B00DD7BE11D22D31A3A0001005D46DA4008398D4013008F402B439B46B8462E4B00279C46002360444642019385E752462A4310
:402A00002CD100250023022297E752462A4321D0002D00D154E1280000F0AAFA03000B3B1C2B00DD46E11D21CB1A51460200D9405346083A954093400D431B4A94466044AB
:402A40004042002279E7012400220C40124B0025904699E70025002301226EE703226CE700239B4698460133042701934CE703230C27019348E700238025984600242D0391
:402A8000054B81E75D464346019A6FE75D4643462100019A6AE7C046FF07000001FCFFFFD8310000FFFF0F80F30300004246120C91461A0C9446424617044A461B041B0C7F
:402AC0005A43604690464A4642431000039262461C003F0C7A437C4342440192220C9246019A5244904506D98246802040028046C24450460390100C049048462404240C3F
:402B00001204121905922A0C2D042D0C68432C00824648467C4350438146200C8046574357444744BA4503D9802040028046C144380C3F04B84648442404240C0190049807
:402B4000A044404404905846000C814658460404200C8246070048465F434C464343604660436446834650464443380C8446E4186444A34203D980235B029C46E34448461C
:402B80003F04230C3F0C2404E419574668436F4384464D46504655434243380C814662444A445B44944503D9802040028446654403983F04834604983F0C8446E344C345BA
:402BC000804140428246100484460198674484466744A344BC46A345A4419946D44464428742BF41D4458041E144A04699459B417F424042C8440743120CBA18A045A44125
:402C00005F423B0064422343D71843467D19DB0D6D021D435B465A02059B1A43531E9A415B46DB0D1A4343465B021343EA0107D501225C0813402343EA07029E13436D081C
:402C4000574AB218002A4BDD580709D00F201840042805D0181D98429B415B42ED180300E80104D54F4A15408022D200B2184E48824200DDE7E60124DB08680718436D0214
:402C8000530580462D0B5B0D0C407DE6802259461203114208D0154206D115432D0398462D0B4C46414B6FE65D4615432D032D0B3E4B69E603005546283B9D400023BCE609
:402CC000504600F055F92030A8E60300283B9F400023BB46984689E600F04AF9203073E60124A61A382E07DD00220C4000230025904649E6029EA3E71F2E20DC20222C00C5
:402D00001800921BF040944093400443581E83411C43F540630709D00F232340042B05D023001C1D9C4292415242AD182B021FD5012400220C4001230025904624E61F2084
:402D40002C004042821AD440202E1CD04022961BB5402B43581E83410720234318400025002809D00F2200251A401C00042AD8D1230068076D022D0B0124DB0803439846F8
:402D80000C40002300E60025E3E780220124120315432D0398462D0B0C40044BF4E5C046FF030000FFFFFFFEFE070000FF0700004200120E511C4302C9B270B55D0AC40FE5
:402DC000012915DDE02189008C466D071B0B6244002128000D0D2D052B431C4D52052B40520813435B00E4075B082343190070BD002A15D1002D1FD0280000F0B9F80A28C1
:402E00001DDC0B232A001B1ADA4013000200153295400F4A1B03121A52051B0B520DD7E7002D06D080221B0B120313436D07094ACEE7084A0023CBE700220023C8E70300B4
:402E40000B3B9D402B000025E3E7C046FFFF0F8089030000FF0700004B0070B55E0D0C03751C640A420F6D052243C90FC4006D0D012D2ADD3B4BF318FE2B1ADC002B42DD9A
:402E80008001451EA841D2001043620F0243500704D00F201040042800D004328020C004104021D00133FF2B03D09201520ADBB201E0FF2300225202520ADB0513435B00D6
:402EC000C9075B080B43180070BD002E07D01443EFD08020D20080040243FF23D7E722430023002A03D00522D208FF2B03D05202520ADBB2DFE7002A32D08020C00302437C
:402F00005202520AD7E71800173014DB8020000402431E20C01A1F280FDC2500124BF3189D406E1EB5419A402B0013432200C2401A430023ABE70023D5E702256D42EB1A6B
:402F40001500DD40202809D0084BF3189A401443621E9441220000232A4398E70022F6E70022A8E780FCFFFF82FCFFFFA2FCFFFF1C2101231B04984201D3000C10391B0AFF
:402F8000984201D3000A08391B09984201D30009043902A2105C40187047C04604030202010101010000000000000000014B18687047C046FC0000200E4B70B500251E0066
:402FC0000D4CE41AA410A54204D0AB00F35898470135F8E700F022F9084B00251E00084CE41AA410A54204D0AB00F35898470135F8E770BD2832000028320000283200009A
:403000003032000010B5034B0100186800F004F810BDC046FC000020032370B5CD1C9D43083506000C2D01D20C2501E0002D01DBA94202D90C23336048E0300000F05EF81B
:40304000234B1C681A002100002913D00B685B1B0DD40B2B02D90B60CC181EE08C4202D1636813601AE04B6863600C0016E00C004968E9E7174C2368002B03D1300000F004
:403080002BF820602900300000F026F8431C18D00323C41C9C43A0420DD12560300000F02EF8200007220B30231D9043C31A0ED05A42E2500BE0211A300000F00DF8431C85
:4030C000EBD10C233000336000F019F8002070BD500100204C010020002370B5064C050008002360FDF780FC431C03D12368002B00D02B6070BDC046EC010020704770476A
:4031000000000000C0070000C4070000EE0700000408000046080000AA1C0000CE1B00008C1C0000641C00008C1C0000581C00008C1C0000641C0000CE1B0000CE1B0000C1
:40314000581C0000641C0000101D0000101D0000101D0000921C0000CE1B0000CE1B0000781C0000621C0000781C0000581C0000781C0000621C0000CE1B0000CE1B000056
:40318000581C0000621C0000101D0000101D0000101D00001C1D000008200000661F0000661F0000641F0000FA1F0000FA1F0000F01F0000641F0000FA1F0000F01F0000BC
:4031C000FA1F0000641F00000020000000200000002000008A200000AC2A00006C2900006C2900006A290000842A0000842A0000762A00006A290000842A0000762A0000B9
:40320000842A00006A2900008C2A00008C2A00008C2A00008C2C000043000000F8B5C046F8BC08BC9E46704791010000650A0000F8B5C046F8BC08BC9E4670476901000039
:40324000503200008000002080000000F000000000000000F0010020010000000000E02EC05D00001800000000366E010000000000000000000000000000000000000000C2
:4032800000000000000000000000000018320000000000000000000000000000000000000000000000000000000000000000000000000000000000000000000000000000C4
:4032C0000000000000000000000000009C00002000000000000000000000000000000000000000000000000000000000000000000000000000000000000000000000000012
:40330000000000000000000000000000000000000000000000000000000000000000000000000000000000000000000000000000000000000000000000000000000000008D
:40334000000000000000000000000000000000000000000000000000000000000000000000000000000000000000000000000000000000000000000000000000000000004D
:40338000000000000000000000000000000000000000000000000000000000000000000000000000000000000000000000000000000000000000000000000000000000000D
:4033C00000000000000000000000000000000000000000000000000000000000000000000000000000000000000000000000000000000000000000000000000000000000CD
:0200000490303A
:02000000880274
:0200000490402A
:1000000000000000000000000000000000000000F0
:0200000490501A
:0C0000000002190C11A90001191C99AB99
:0200000490600A
:0100000001FE
:00000001FF