:400000000008002011000000250700002507000010B500F05FFD00F0A5FBC04610B5184C12232360182000F0DFFC0022154B1A60154B16491960802040001549086015496C
:400040001960FE2000021449086014491960C02000011349086013491960134B1A604132124B1A604223124A1360124A13604022114B1A600332114B1A601123236010BDE6
:4000800030001040040301400000014041FF00800803014042FF00800003014040FF00800C03014043FF00802800034018010140100101400C010140080101400001014064
:4000C00010B572B6BB221C4B1A60223A1B4B1A601B4A1C4B1A601C4A1C4B1A6048221C4B1A601C4A1C4B1A60C0221C4B1A602E3A1B4B1A601B4A1C4B1A6002221B4B1A60A5
:4001000020231B4A13601B491B4A11601B4A1360C1221B4B1A601B4A1B4B1A6004231B4A1360C02109011A4A11601A4A1360FFF775FF00F0EDFA10BD000002400001024061
:4001400000EE00080003024020000300600106400000044009040000080004401800044000010440B12140000801044018010440000204408001D800080204401802044035
:4001800000030440826D5B000803044000040440080404401804044010B5064C2378002B07D1054B002B02D0044800E000BF0123237010BD0801002000000000BC3D0000D4
:4001C000084B10B5002B03D00749084800E000BF07480368002B00D110BD064B002BFBD09847F9E7000000000C010020BC3D0000800000200000000070B5074901220023A0
:400200000C684D6812196B410A604B6000F012FF012000F0D5FE70BD2801002010B5074C208800F067FC2088400800F06BFC00F03FFF012000F0CAFC10BDC0468400002078
:4002400070B50E4B1C6823070CD50D4B1D686B0706D5012000F012FE00F0FAFD00F034FD074B1D60630708D5064B1C68A30502D5002000F003FE034B1C6070BD000E084056
:40028000C00F0840800F0840F0B5474680B488B08D4800F0FFFE032000F0DAFE00F086FC00F07EFF00F0CCFC884800F0D9FC884800F0B2FE032000F08FFE00F071FE62B652
:4002C000844B19685A680C00150000940195986800F03AF90590012000F0DCFD012000F07BFC012000F002FE012000F0F3FD002000F07EFC26002F0021002A000291039213
:4003000000239846FA2464000025009A019BA4185D41704B1A685B68AB4202D80AD1A24208D900F0CFFD43425841C0B200F0BEFD0094019514240025A4197D41654B1968F4
:400340005B68AB4202D87DD1A1427BD9614B9A68059E300000F096F9300000F001F9322832DD012000F0B6FD002000F041FC300000F0F6F8C317C0185840574B181A80B27C
:40038000564B188001F06AFD03F024FA02000B000020534902F0CCF80022524B02F0DEFB514A524B02F0DAFB06900791494EB06803F0D8F9069A079B01F08EFD01F072F8D9
:4003C000B06026002F003DE0059E300000F0C8F8323032DA012000F07DFD012000F008FC300000F0BDF8C317C01858403A4B181A80B23A4B188001F031FD03F0EBF90200CD
:400400000B000020364902F093F80022354B02F0A5FB354A354B02F0A1FB069007912D4EB06803F09FF9069A079B02F011FE01F039F8B06026002F0004E0002000F04AFD83
:4004400026002F002A4C0025029A039BA4185D41204B1A685B68AB4202D808D1A24206D987218900059800F081F80294039500F02FFE040043463233984209D9012000F0A4
:4004800015FD642000F030FA002000F00FFDA0464346323B9C4200D334E7012000F006FD322000F021FA002000F000FD322000F01BFA012000F0FAFC322000F015FA00207B
:4004C00000F0F4FCA0461DE71D02000041020000F9010000280100203075000084000020004CDD4000E080407B14AE47E17A943F8813000010B5C160416081600160002104
:400500000161002343618361C1610B4A4262FE22920502628362C36203634263074C8463074C0464C26343648364C364054B036542655823C15410BD17B7513900409C465E
:4005400017B7D138D6B9723A70B505005C2003F0B7FB04002900FFF7CDFF200070BDC04610B5406901F010FC10BDC04603689C46614401607047C0465823C35C002B03D1F5
:4005800003684360012001E0012040427047C046F0B583B007000E1C141CFE218905101C00F06CFF002806D13449201C00F052FF002804D002E0FE24A40500E02F4C3968C0
:4005C000201C01F0CDFA051CB968201C00F088FF03F000F900222A4B02F0C0FA00900191786803F0F7F8009A019B02F0B7FA00900191301C03F0EEF8009A019B02F0AEFA0F
:4006000000900191F86803F0E5F8009A019B01F063FC03F033F9061C011C281C00F060FF051CBC60FE21890500F028FF002806D11249281C00F00EFF002804D002E0FE2554
:40064000AD0500E00D4DFE218905301C00F016FF002806D10949301C00F0FCFE002804D002E0FE26B60500E0044EFE603D61B969281C01F075FA03B0F0BDC046000080BFB3
:400680000000E03F70B5040016000069884203D921610120404236E0081A01F0DFFB1A4901F094F8051CE368B34208D2F21A17498A4204D9E66026600220404223E0B3420D
:4006C00008D99B1B114A934204D9E66026600220404218E0291C2000FFF74EFF6368981B01F074FB216D01F03BFA021C20003C30291CFFF74DFF021C20002030291CFFF7BA
:4007000047FF6061012070BD00007A44FF0F00001023024A1360024A13607047A8020B40C0020B4010B503F09FFA03680C2B00D1FEE7FEE710B50300084A1068C318084AE1
:400740009A1A802A02DC054A136005E003F08CFA0C2303600120404210BDC04688000020E801002070B50F4E0F4D13E029686B68AC68002202E001C901C30432A242FAD1A4
:40078000E868002202E0002102C304328242FAD11035013E002EE9D103F06CFAFFF774FDFEE7C04601000000283F000010B500230AE0032B03D89A000849505800E008481D
:4007C0009900084A885001331F2BF2D9FFF778FC80229205044B1A6010BDC04600000000250700000000002008ED00E00C4B1B689B001C22134018330A4A126892080321B0
:400800000A40D34008490868084A02400A60084A944663441B78DBB2064A13607047C046080F03402800034000000740FFFFFFBFCDF1FF0F0C0F0340034B18688023DB05E6
:40084000184000D001207047000007401F2318401E3B8340014A13607047C04600E100E01F2318401E3B8340014A13607047C04680E100E001BE704770B504000D000F28EA
:4008800002D90020FFF7F6FF1034A40080239B059C4664442068256070BDC04670B504000E00032902D90020FFF7E4FF0F2C02D90020FFF7DFFF03252540ED00063500F077
:4008C00088FCA408A400074B9C46644421680323AB4099430B003100A9401943216000F07CFC70BD00E400E010B5040006E0084B586800F065FC074B9C46644480231B02C8
:400900009C42F4D8024B9868604300F059FC10BD8C0000200080FFFF70B582B000F0D0F800284DD000F055FC0500264B1A6892001C231A401832244B1B689B0803210B40DB
:40094000DA400021214B1960214C2168214B0B4021494A438021C9018C466244D20B013A5205520D1343A0225203134323601B4B1B680193302000F033FC194A1368802151
:40098000C9050B4313602668164B1E40002407E00120FFF7A9FF1034A30533430C4A1360EE2CF5D90120FFF79FFFFF239B051E43074B1E60019A094B1A60280000F00DFC4C
:4009C00002B070BD080F0340280003400C0F03400800074000F800C040420F003000104000000740FFFF3FC0F0B583B0040018280BD01C2809D0202807D0242805D02828F5
:400A000003D02C2801D0302849D100F0E2FB0190FFF712FF002803D0FFF7E8FE012600E00026214A136807218B4313601F4BE3181B78DBB21E4A13601E4A13688B43136010
:400A40001D4803687F22934319001C4BE3181B7813400B430360322000F0B2FB182C16D9114F3B680725AB431A0023001C3B9B082B4013433B60322000F0A2FB3A68AA43DD
:400A80002300183B9B082C001C4014433C60012E01D1FFF741FF019800F09FFB02E00020FFF7E8FE03B0F0BD080F0340CDF1FF0F0C0F0340100F0340180F0340B4F1FF0F07
:400AC000034B1B68002B01DA012000E00020704700000740014A024B1A6070476588EDAC380003400004000C014B18607047C046C80106400004000C014B18607047C04605
:400B0000D40106400004000C014B18607047C046CC01064070B504000D0000F05AFBAC40024B1C6000F059FB70BDC0460800064010B500F04EFB064A116808230B4313604E
:400B400000F04BFB18210820FFF7E4FF10BDC04600000640014B18607047C046F801064010B50E4C8023DB042360236823600020FFF7B8FF236823600C22094B1A60012002
:400B8000FFF7E8FF3122074B1A60074C2000FFF7B1FF2000FFF7B6FF10BDC046C0010640E4010640E8010640FFFF000010B5064B1B78002B04D1FFF7D3FF0122024B1A70B8
:400BC000FFF7B6FF10BDC04634010020014B18607047C046F001064004490A687F231A40C301D8B2104308607047C0460002044004490A68D2B220239A4340011840104354
:400C0000086070470003044010B50720FFF71EFE10BDC04610B500F009F910BD10B500F08BF810BD10B5054A1368802109060B431360FFF7E9FFFFF7EDFF10BD000008401F
:400C400010B5064B1B78002B04D1FFF7E7FF0122024B1A70FFF7E6FF10BDC04638010020014B58607047C04638010020094B1A68094B1B689A420BD0074B1B680133412BFB
:400C800000D10023054AD05CC0B2034A136000E000207047DC0100205401002098010020074B1B68074A1268934203D3054A1068181A04E0034A10681B1A4133180070474C
:400CC000DC01002054010020144B1A68144B1B689A4208D1134B1B681F221340102B02D0114B186019E00D4B1A680132402A00D100220B4B1B689A42FBD002230B490B60ED
:400D0000C0B20B49885405490A600A4A1268134203D1084A11680B4313607047500100204C0100200802084040020840800F084058010020880F084070B5214A214B1A60C0
:400D40000024214B1C60214A214B1A60214A224B1A600722214B1A60214B1C60063A214B1A60214A214B1A60214B1C600425214B1D600720FFF774FD03210720FFF78EFD02
:400D80001D490720FFF778FD1C4B1C601C4B1C601C4B1C601C4B1C601C4B1D601C4B802292001A601A681B4B1A801B4B1C601B4B1C601B4B1C701B4B1C601B4B1C6070BD8D
:400DC0000F080002000008404000084001000A004800084007020080000308400403084010030840440008400700008000020840040208405000084035120000880E084089
:400E0000C80E0840480F0840080F0840C80F0840880F084040010020DC01002054010020D9010020500100204C01002005490B68F0229343603A13430B60034B1A88034BAB
:400E40001A6070470001024040010020880F084010B5FFF725FF002802D0FFF707FF00E00020054B1A68D8239B001A4203D01A00014B1A60002010BDC00F084004490A68AF
:400E8000D2B204239A43800018401043086070470001044004490A68D2B210239A43000118401043086070470003044004490A68D2B204239A438000184010430860704725
:400EC00000020440024B186880080123184070470402044004490A68D2B240239A43800118401043086070470002044004490A68D2B208239A43C0001840104308607047F1
:400F0000000404400004000C014B18607047C046080106400004000C014B18607047C0461401064070B504000D0000F052F9AC40024B1C6000F051F970BDC04608000640BC
:400F400010B500F046F9064A116801230B43136000F043F918210120FFF7E4FF10BDC04600000640014B18607047C0463801064010B580229204074B1A600C22064B1A6095
:400F80000120FFF7EFFF0548FFF7C4FF0020FFF7B9FF10BD0001064024010640DF2E000010B5064B1B78002B04D1FFF7E1FF0122024B1A70FFF7C4FF10BDC0464201002064
:400FC000014B18607047C04630010640014BD8667047C0460000002010B5040000F0F9F8044A13689B009B08A4071C43146000F0F4F810BD08E400E080221201014B1A6073
:401000007047C04600E100E080221201014B1A607047C04680E100E010B50400FFF7F4FF2000FFF7D3FF0320FFF7D6FFFFF7E4FF10BDC04680221201014B1A607047C0464D
:4010400080E200E0014B98677047C0460000002010B5040000F0BDF8044A1168044B0B40A4051C43146000F0B8F810BD0CE400E0FFFF3FFF8022D201014B1A607047C0464A
:4010800000E100E08022D201014B1A607047C04680E100E010B50400FFF7F4FF2000FFF7D1FF0320FFF7D4FFFFF7E4FF10BDC0468022D201014B1A607047C04680E200E0CC
:4010C0000004000C014B18607047C04648010640024B18680004000C7047C0464801064010B5040000F075F8054B1968054A0A401A601A6814431C6000F06FF810BDC0461E
:4011000040010640FFFFFCFF0004000C014B18607047C0465401064070B504000D0000F058F8AC40024B1C6000F057F870BDC0460800064010B500F04CF8064A1168022331
:401140000B43136000F049F808210220FFF7E4FF10BDC04600000640014B18607047C0467801064010B5C02292040B4B1A60C32292000A4B1A600120FFF7EEFF80204002C7
:40118000FFF7AEFF802424022000FFF7BDFF2000FFF796FF10BDC046400106406401064010B5064B1B78002B04D1FFF7DBFF0122024B1A70FFF7BEFF10BDC04643010020E3
:4011C0000230800803D001300238FCD1C046C0467047EFF3108072B6704780F31088704770B50400FFF7F5FF0500102C05D8104A136803218B43136016E0202C07D80C4973
:401200000B6803229343023A13430B600CE0302C07D807490B6803229343013A13430B6002E00020FFF726FB2800FFF7D6FF70BD3000104010B5274B1B68002B00D0984715
:40124000254B1B685B071DD5244B1B680133412B00D10023224A1268934205D1214B1B682022214B1A7006E01E4A1268D2B21F49CA541A4A13601E4B1B68DB06E4D1042298
:401280001C4B1A601C4B1B689B0721D51B4B1A681B4B1B689A4213D0194B1B680133402B00D10023174AD25CD2B217490A60144A1360164B1B681F221340102BE6D104E0C5
:4012C000134A136802218B4313600222114B1A6010BDC0463C010020CC0F0840DC0100205401002040030840D90100209801002008030840C00F08408C0F084050010020F7
:401300004C010020580100204002084008020840880F0840800F0840002243088B4274D303098B425FD3030A8B4244D3030B8B4228D3030C8B420DD3FF22090212BA030C1F
:401340008B4202D31212090265D0030B8B4219D300E0090AC30B8B4201D3CB03C01A5241830B8B4201D38B03C01A5241430B8B4201D34B03C01A5241030B8B4201D30B0372
:40138000C01A5241C30A8B4201D3CB02C01A5241830A8B4201D38B02C01A5241430A8B4201D34B02C01A5241030A8B4201D30B02C01A5241CDD2C3098B4201D3CB01C01A6E
:4013C000524183098B4201D38B01C01A524143098B4201D34B01C01A524103098B4201D30B01C01A5241C3088B4201D3CB00C01A524183088B4201D38B00C01A5241430855
:401400008B4201D34B00C01A5241411A00D20146524110467047FFE701B5002000F006F802BDC0460029F7D076E770477047C0468446081C6146FFE71FB500F04DFB002860
:4014400001D40021C8421FBD10B500F0D9FA4042013010BD10B500F03FFB002801DB002010BD012010BDC04610B500F035FB002801DD002010BD012010BDC04610B500F033
:40148000E7FA002801DC002010BD012010BDC04610B500F0DDFA002801DA002010BD012010BDC04670B500220C4B04000D0002F0A5FA002804D12000290002F01DF970BD3A
:4014C000064B00222000290001F0C2FD02F014F980231B069C466044F1E7C0460000E041F8B54A02430244004E00C50F240E28009B09360EC90F92098D4259D0A01B002804
:4015000000DC8DE0002E1AD1002A00D079E05A0704D00F221A40042A00D004335A0138D50134FF2C00D189E028009B015B0AE4B25B02E4055B0A2343C0071843F8BDFF2C2D
:40154000E5D08021C9040A431B2800DD89E016002021C640081A8240511E8A4132439B1A5A0114D59B019E09300002F051FA05388640844265DC041B330020200134E340E5
:40158000041BA640721E964100243343BFE75A07BFD1DF082800FF2C2FD1002F00D187E08022D20313003B435B025B0AFF24BFE7A11B002949DD002E29D0FF2CA7D08026E0
:4015C000F60432431B2900DD8DE017002026CF40711A8A40511E8A413A439B185A01D6D50134FF2C64D0012276491A405B080B4013438CE7031ECAD100207B025B0AE4B222
:4016000096E701380028AAD0FF2C9DD17FE7002A00D17CE701390029DFD0FF2CD2D176E7002820D1601CC0B2012853DD80279E1AFF0437402FD0D61A0D0095E728000023BC
:4016400076E7614B241A334061E700294DD1611CCEB2012E2FDDFF292AD09B185B080C0055E701227BE7002C1BD1002B5BD0C04300280CD0FF2E7ED01B2800DD92E01D0045
:401680002024C540201A8340581E83412B43D31A34000D0064E7002E00D065E700200024ABE7FF2E67D08024E40440422343E3E7FF2400233CE7002C61D1002B7ED0002A97
:4016C00000D124E79B185A0100D460E73E4A0C0013401CE7002C1ED1002B2FD1002A66D013000D0013E7012277E7002C1FD1002B5AD0C94300290BD0FF2E50D01B295FDC6D
:401700001F002024CF40611A8B40591E8B413B439B18340062E7002B1CD1002A4AD013000D00FF24F3E6130034000D00EFE6FF2E35D08024E40449422343DFE7002A00D1EF
:40174000E5E68027981AFF04074000D152E7D31A0D00DCE6FF24002A00D1D8E68020DB08C003034204D0D208024201D113000D00DB00FF24CBE61300FF240D00C7E6002B20
:401780000DD0FF24002A00D1C1E68021DB08C9030B42EDD0D2080A42EAD11300E8E71300FF24B4E6012372E713003400AFE60027002022E780270020FF03F1E61300A6E6B2
:4017C0000123A5E7FFFFFF7DFFFFFFFBF0B5564644465F464D46F0B444024600C70F83B08846650A360EBA463DD0FF2E22D00023EC00802599469B46ED0425437F3E4346CB
:401800005C025800DB0F640A000E984636D0FF2830D080230021E400DB041C437F38301A0190484642460843724E800030587A4013008746002D44D108239946063B9B46D8
:40184000DDE70122FF2000241A406402C305640AD2071C431443200003B03CBC90469946A246AB46F0BD002D20D104239946033B9B46C4E7002C17D1022102E0002C0AD1A5
:401880000121321A01924A4643460A435A48920082587B409746200002F0BAF8431F76309C4040420021BAE70321B8E7280002F0AFF8431F9D4000237630464299469B465B
:4018C0009DE70C239946093B9B4698E780240022E403FF20B9E70024C2468B465A465346022AAED0032A7DD0012A31D1012200201A400024A9E70122101A1B2856DD1A4051
:4019000000200024A1E78023DB031D424BD18023DB032B435C02640A3A00FF2095E76D016001854230D2019A0024013A01921B220127290064006D00002901DBA84201D803
:401940002D1A3C43013A002AF3D16A1E95412C4301987F300028CEDD620704D00F222240042A00D00434220103D5244A019814408030FE2800DD64E70122A401640AC0B28E
:401980001A4062E72C00A9E72D1A1A220124CFE76B02BCD500248023DB031C436402640A4246FF2051E71C42B3D1F4E721002022C140101A8440621E94410C43620704D0C5
:4019C0000F222240042A00D00434620104D5012201201A40002438E70122A401640A1A40002032E78023DB031C436402640A5246FF202AE7C03D0000003E0000FFFFFFF78D
:401A0000430270B542004C005D0AC30F4802120E460A240EC90FFF2A0FD0FF2C11D00120A24200D070BDB542FCD18B420DD0002AF8D12800431E9841F4E70120002DF1D1ED
:401A4000EBE70120002EEDD1E9E70020EAE7C0464302F0B542005D0AC30F4802440A4800120E000EC90FFF2A1FD0FF2822D0002A09D16E426E4100280FD1002C0DD10020AF
:401A8000002D09D005E0002801D1002C01D08B4213D0584201231843F0BD002EF7D048424141012049420843F6E7002DDDD002204042F1E7002CDAD0F9E78242E9DC04DB85
:401AC000A542E6D80020A542E6D25842434101205B421843E0E7C0464302F0B542004C005E0AC30F4802120E450A240EC90FFF2A17D0FF2C19D0002A0BD170427041002C50
:401B000017D0002807D048424141012049420843F0BD002C13D08B4214D0584201231843F6E70220002EF3D1E3E70220002DEFD1E1E7002DE5D10020002EE9D0EDE7002DB9
:401B4000E9D1EAE7A242E8DC04DBAE42E5D80020AE42DDD25842434101205B421843D7E7F0B557464E4645464300E0B446028846760A1F0EC40F002F47D0FF2F25D0002398
:401B800080259A469946F600ED042E437F3F434642465D02D20F5B006D0A1B0E904640D0FF2B39D080220020ED00D20415437F3BFB1842465746591C62408C4607430F2F06
:401BC0005CD86F49BF00C9598F46002E45D108239A46063B9946DAE7424602282DD0032800D1C3E0012800D0A2E0002500260240D4B27602ED05760A2E43E4072643300058
:401C00001CBC90469946A246F0BD002E1AD104239A46033B9946BAE72A00511E8A41901CC6E70120002DC3D0280001F0F1FE431F76309D4043420020BAE70124FF25144036
:401C40000026D6E7300001F0E3FE431F9E400023763047429A46994699E70C239A46093B994694E780260024F603FF25C1E735004846B2E7350022004846AEE72904090C5A
:401C80000800370C3604360C2C0C7943704367437443060C64183619B14203D980214902884647440004000C310409188D01681E8541890E2943350CED19AD010D432901B2
:401CC00004D5012369081D4063460D4319007F31002925DD680704D00F202840042800D00435280103D5274980330D401900FE29A3DC0124AD016E0A1440CDB279E78020CF
:401D0000C003064207D0054205D128434602760A4446FF256DE706437602760AFF2568E70124611A1B2905DD14400025002660E76346CBE72E002023CE40591A8D406B1E6C
:401D40009D412E43730704D00F233340042B00D00436730104D5012401251440002648E70124B601760A1440002542E780260124F6032E437602760A1440FF2539E7C046DE
:401D8000403E0000FFFFFFF74302590A4300C20F1B0E00207E2B0EDD9D2B0DDC802000040143952B0BDC9620C31AD9400B005842002A00D118007047034BD018FBE7963BD4
:401DC00099400B00F3E7C046FFFFFF7F70B5002830D0C317C5185D40C40F280001F018FE9E231B1A962B0DDC9622D21A95406A02520AD8B25202C005520AE407024322438B
:401E0000100070BD992B19DC9922D21A9540124A2A40690704D00F210D40042D00D00432510103D50C4B1A409F231B1A9201520AD8B2DFE7002400200022DBE705222E00E4
:401E4000121AB921D6402A00C91A8A40551EAA4135001543DBE7C046FFFFFFFB70B5041E28D001F0D5FD9E231B1A962B0ADC9622D21A94406202520AD8B25202520AC005EE
:401E8000104370BD992B18DC9922D21A9440114A2240610704D00F210C40042C00D00432510103D50B4B1A409F231B1A9201520AD8B2E2E700200022DFE705222500121A31
:401EC000B921D5402200C91A8A40541EA2412C001443DCE7FFFFFFFBF8B556465F464D464446F0B40F00FD0FAA4609037C002E005F00450F490A7F0D2943C5001803BC4641
:401F0000400A570F640DDB0F3843D2009A4500D1AAE06646A61B002E00DCFFE06346002B39D10300134300D0D9E06B0709D00F232B40042B05D02B1DAB42AD416D424919D9
:401F40001D000B0200D482E0CA4B01349C4200D1FEE00A005646C84BED081A405007640552020543120B640D002112030B0D1B056405120B1A436308C04CF60714401C43C0
:401F8000640064083443280021003CBC90469946A246AB46F8BDB74B9C42C6D080231B041843382E00DDEBE01F2E00DD1EE120239B1B9C4603006746BB4098461300474688
:401FC000F3403B436746BA40571EBA4113430200F240EB1A9D42B6411D008A1A7642911B0B0231D54A02560A002E00D1B4E0300001F00EFD0300083B1F2B00DDB5E02022CD
:402000002900D21AD1409E400A009D4032439C4200DDB1E01C1B631C1F2B00DDD5E0202114002800C91A8C40D8408D400443DA40681E854111002543002476E741463143AF
:4020400000D134E2310045466B0700D06FE756464807ED08C9080543864B9C4235D00A036405120B640D7FE76346E31A9B46002B00DC8BE06746002F3CD07E4FBC4200D191
:4020800053E780273F0438435B46382B00DCF7E00243501E82410020D2B253194218AB4289411D00494289180B02CDD5714B01349C4200D13DE101206F4A6B080A4028407E
:4020C0001843D507054351082FE72B000B4300D1CBE180231B030B431A03120B44E7013E002E6DD1AE1AB5429B41091A5B42C91A350075E70700174300D116E701235B421E
:402100009C46E3445B46002B00D0E0E0AA18AA429B4109185B4259181500C5E7002E75D1661C7605760D012E00DCF3E0AE1AB0464545BF410E1A7F42F61B370200D48FE030
:40214000551BAA42B641411A76428E1B9A464BE756460022002507E7280001F059FC20300300083B1F2B00DC49E72A002838824000259C4200DC4DE73F49E41A1140D4E623
:402180000243501E8241D3B2002222E7002B00D0F3E0631C9C465B055B0D012B00DC9FE0344B9C4500D1C3E0AA180918AA42804140424118CD075208154349086446B4E621
:4021C0002C4B9C4200D0ECE6AFE611001F3CE1400C00202B00D17FE04021CB1A9A4015436A1E95410021254300242DE733000700203BDF403B00202E70D04027BE1BB040FB
:402200000243501E824113430022E2E6002C4FD0184CA44500D1ABE08024240476422143382E00DDDFE01F2E00DD43E12027BC1BA1460C004F46BC40A0462C004746F44047
:402240003C434F46BD406F1EBD41F1402C43151BAA429241411A5242891A64469A46BFE641464546314300D0BEE6002600240025F2E6C046FF070000FFFF7FFFFFFF0F801C
:402280001F2B59DC2027FF1ABC46070063469F405B46B9461700DF40B8464F4643461F4363469A40531E9A415B463A43D840F4E60C002C435CD0F643002E55D1551BAA42EB
:4022C000A441411A6442091B9A46644688E6964FBC4200D0D8E628E6002280E700208FE70B002B43002C00D0C2E0002B00D101E10300134300D118E6AB18AB42B641091859
:40230000764271180A0200D409E1884A1D00114064460AE6002C5BD10E002E4300D08AE00100114300D1C2E0010015009A46FCE56446002100258FE620235B429C46DC44C1
:4023400063460700DF405B46BC46202B00D1ACE040235F46DB1B98400243501E8241634613431A00002098E66F4CA44500D057E70100150064469A46D7E5002C39D10C00F0
:402380002C436ED0DB43002B1AD0674CA44568D0382B00DDA4E01F2B00DDAEE020240F00E41AA740B9462F00DF40B846A3464F46444627435C46A5406C1EA541D9403D436B
:4023C000AD1895429B4109185B42591864466BE60C002C4315D1010011437BD0010015009A46514CA1E50D43691E8D410021ECB22DE74D4CA44534D0802424045B42214356
:40240000C6E7040014434ED0ED084C072C438025C9082D03294208D0C6082E4205D1D208410711430C009A463100620FC900E50011433D4C79E50600164300D175E5AE1A83
:40244000B0464545BF410E1A7F42F61B370200D4F4E5551BAA42B641411A7642891B9A4663E50100150064465FE5002200257BE5002B3BD00300134315D0ED084B072B43F6
:402480008025C9082D03294207D0C4082C4204D141070B002100D2081343C9005A0F1143DD00214C41E5204C3FE5002054E700260025D1E534000F00203CE7403C00202E4F
:4024C0002BD04027BE1BB1400D43691E8D4100212C43BCE6802100260903134C0025BBE50D43691E8D410021EDB269E7010015000D4C1AE50100150017E51C000F00203C26
:40250000E7403C00202B0CD04027FB1A99400D43691E8D410021254352E70021D4E71D0092E50021F3E7C046FF070000FFFF7FFFF0B556464D4644465F46F0B41D000E038D
:402540004C00CB0F87B0070092468146360B640D98466AD06D4B9C4235D08022430F12041343F6001E43C3009946694B00279C460023644402932B0368001B0BED0F51462E
:402580009B46400D009500D178E0604B98426CD05B46DA004B0F802109040B4313439B465346D9005A4B9C46002360444246201A6A40924601901F430F2F00D9B0E055482B
:4025C000BF00C0598746374300D088E0002399460233082700260293CDE74346B34649460093029B009A9246022B00D0BFE1002153460122002689461A40444B002136034A
:402600000C0D2405360B2643434C1B0526401E437600D207760816434846310007B03CBC90469946A246AB46F0BD330003434FD0002E00D1BCE1300001F0EAF903000B3BE8
:402640001C2B00DDADE11D220100D31A08393A008F408E40DA40B9461643304B00279C46002360444442029385E753465A4613432CD1002300219B46023397E70B4320D07D
:402680005B46002B00D19EE1584601F0C1F903000B3B1C2B00DD8FE102005946083A91408B461D21CB1A5146D9400B0059460B4351469B469140194B9C46604440420023B0
:4026C00074E7002300219B4601336FE703236DE70023994601330427002602934BE703230C27029347E70122D51A382D00DCB0E153461A4000210023002689467EE7002354
:402700008026994600223603004B77E7FF07000001FCFFFF803E0000FFFF0F80F30300005E4500D972E100D16DE1019B4D46013B01930023340002935B461E020B0E1E43BA
:402740000B020393330C994633041B0C494620000093FEF7E1FD009B370043430600494620009846FEF75EFE2C0C09040C43A04509D9E419731EA74200D95CE1A04500D844
:4027800059E1023EE4194346E41A49462000FEF7C3FD0300009A80465343494620009B46FEF740FE2A040904120C0A4393450DD94346D219013B974200D93AE1934500D86A
:4027C00037E102235B429C46D219E0445B46D21A4346360433439B460399180C0B0C1D00059309045B46090C0C001B041B0C4443049159436B4368431B190D0CEB189C4287
:4028000003D980246402A44660441C0C09041B04090C20185D18824200D2DEE000D1D7E0161A029B9C465D1BAC459B415B42F61AB74200D106E149463000FEF76DFD009B27
:4028400004004343494630009846FEF7EBFD2E0C09040E43B04509D9F619631EB74200D9F3E0B04500D8F0E0023CF6194346F31A494618000293FEF74FFD009B060043438C
:40288000494602989846FEF7CDFD2D0409042D0C0D43A84509D9ED19731EAF4200D9D6E0A84500D8D3E0023EED192404210043463143049E059A3000ED1A0B040C0C1B0CDB
:4028C00058436643534354439A19030C9B189E4203D980225202944664441A0C00041B04000C14191B18A54250D34DD001231943964A019B94466344002B00DCF3E64A0734
:4029000009D00F220A40042A05D00A1D8A42894149428B4411005A46D20108D55A468C4B1A4093468022D2009446019B6344894A934200DD5BE65A46C9085007084356025C
:40294000514601225B058146360B5B0D0A4055E680231B031E4211D05A461A420ED15E461E433603360B2A0089467B4B46E6032B00D1E1E0012BBBD11A40BBE61E433603F4
:40298000360B4246744B39E6002BB1D07D194A1EAF4252D91100A542A8D1039A9A42A5D1A6E703003E00283B9E400023994654E601F02EF8203041E603005246283B9A4099
:4029C0000021934677E6504601F022F820305EE6029B0026AB4200D323E7039E0299B44661448846B045B6415B467642F619B218013B0291974213D290424FD800D18EE032
:402A0000161A9B460DE7894500D28EE674084B46F60735005B081D434B46DB0702938BE69742EDD10399029CA142E5D93E1A9B46F7E69846CAE61E00A5E6AC423ED874D0FB
:402A4000110053E70121494252E71C000EE71E002BE71F2D3CDC20230A0058465B1B9840EA4099400243481E81415E461143EE404B0709D00F230B40042B05D00B00191DC4
:402A800099429B415B42F61833023CD55346012200211A40002601238946AFE502235B429C46039CE344A446029B63449846A045B6417642F6190293B218B1E603988A1E38
:402AC00041008142B6417642F619AD19039161E71F225242D31A5A46DA401300202D29D040225846551BA8400143481E814107200B4318400026002809D00F2200261A4034
:402B00001900042ABBD10B0070077602360BDB0803439946012253461A4000236EE502998D42BBD89B4600267BE603989842C5D3110032E70020D7E780265B4636031E4398
:402B40003603360B009A8946034B57E5FF030000FFFFFFFEFE070000FF070000F0B55F4656464D464446F0B40D0399464E002B0B87B00700924680469B46760DCC0F002E7D
:402B800069D06D4B9E4235D05B468022DD001204430F13432B439B46C3009846674B00279C460023664401934A4615035000D20F53462D0B400D914600D176E05E4A9042E6
:402BC0006CD080225B0F120413435C4AED0094461D4353460022DB00604449463618701C6140029017430F2F00D9AFE05448BF00C759BF465B461F4300D088E000239B46BF
:402C00009846023308270193CEE74946022A6AD0032A00D109E2012A00D0BBE111400022002300259046CCB200212D030A0D12052D0B1543434A1B0515401D436D00E407BC
:402C40006D0825434046290007B03CBC90469946A246AB46F0BD034352D05B46002B00D18AE1584600F0D4FE03000B3B1C2B00DD7BE11D22D31A3A0001005D46DA400839E0
:402C80008D4013008F402B439B46B8462E4B00279C46002360444642019385E752462A432CD100250023022297E752462A4321D0002D00D154E1280000F0AAFE03000B3B29
:402CC0001C2B00DD46E11D21CB1A51460200D9405346083A954093400D431B4A944660444042002279E7012400220C40124B0025904699E70025002301226EE703226CE757
:402D000000239B4698460133042701934CE703230C27019348E700238025984600242D03054B81E75D464346019A6FE75D4643462100019A6AE7C046FF07000001FCFFFF60
:402D4000C03E0000FFFF0F80F30300004246120C91461A0C9446424617044A461B041B0C5A43604690464A4642431000039262461C003F0C7A437C4342440192220C92465F
:402D8000019A5244904506D98246802040028046C24450460390100C049048462404240C1204121905922A0C2D042D0C68432C00824648467C4350438146200C80465743AF
:402DC00057444744BA4503D9802040028046C144380C3F04B84648442404240C01900498A044404404905846000C814658460404200C8246070048465F434C464343604693
:402E000060436446834650464443380C8446E4186444A34203D980235B029C46E34448463F04230C3F0C2404E419574668436F4384464D46504655434243380C81466244B8
:402E40004A445B44944503D9802040028446654403983F04834604983F0C8446E344C345804140428246100484460198674484466744A344BC46A345A4419946D44464429F
:402E80008742BF41D4458041E144A04699459B417F424042C8440743120CBA18A045A4415F423B0064422343D71843467D19DB0D6D021D435B465A02059B1A43531E9A4164
:402EC0005B46DB0D1A4343465B021343EA0107D501225C0813402343EA07029E13436D08574AB218002A4BDD580709D00F201840042805D0181D98429B415B42ED18030040
:402F0000E80104D54F4A15408022D200B2184E48824200DDE7E60124DB08680718436D02530580462D0B5B0D0C407DE6802259461203114208D0154206D115432D039846DC
:402F40002D0B4C46414B6FE65D4615432D032D0B3E4B69E603005546283B9D400023BCE6504600F055FD2030A8E60300283B9F400023BB46984689E600F04AFD203073E67C
:402F80000124A61A382E07DD00220C4000230025904649E6029EA3E71F2E20DC20222C001800921BF040944093400443581E83411C43F540630709D00F232340042B05D0B9
:402FC00023001C1D9C4292415242AD182B021FD5012400220C4001230025904624E61F202C004042821AD440202E1CD04022961BB5402B43581E83410720234318400025FD
:40300000002809D00F2200251A401C00042AD8D1230068076D022D0B0124DB08034398460C40002300E60025E3E780220124120315432D0398462D0B0C40044BF4E5C0464F
:40304000FF030000FFFFFFFEFE070000FF070000F0B557464E464546E0B40E001100F20F9246C500420F180337037400400A4E0F7F0A3043CF4E17435A00640D520DDB0F4E
:40308000C900B24200D1E5E001267340A61AB446534500D1AFE0002E00DC0DE1002A3AD103000B4300D0E4E06B0709D00F232B40042B05D02B1DAB42AD416D427F191D00AC
:4030C0003B0200D488E0BB4B01349C4200D110E13A00B94B51461A4001235007ED08520264050543120B640D0B400021280012030D0D120B64052D0515436208AF4CDB0730
:403100002C401443640064081C4321001CBC90469946A246F0BDA74B9C42C5D080231B0418436346382B00DDFDE01F2B00DD30E1624620239B1A02009A40664690460A00D2
:403140009940F24046464B1E99413243114363460200DA40691A8D429B410D00BA1A5B42D71A3B0235D57A02530A98464346002B00D1C4E0404600F04BFC0300083B1F2BD6
:4031800000DDC5E020222900D21A4746D1409F400A009D403A439C4200DDC0E01C1B631C1F2B00DDE4E0202114002800C91AD8408C408D400443DA40681E8541170025431C
:4031C000002471E7424663461A4300D14CE2674645466B0700D069E7012351467807ED08FA080B40054373498C4238D012036405120B640D79E7002E00DC9AE0002A47D075
:403200006C4A944200D14FE78022120410436246382A00DC08E10143481E81410022C9B24919D219A942BF410D007F42BF183A0200D442E15F4A0134944200D14EE1012033
:403240005D4A69083A4028400843D507054357089A4629E706000E4300D017E714E72900114300D1F9E1802109030A431203120B3BE701235B429846C4446346002B72D142
:40328000691A8D429B413F1A5B42FF1A0D0068E702000A4300D107E7012252429046C4446246002A00D0E6E06918A942B6413F187642F7190D00BAE7002E00D080E0621C5E
:4032C0005205520D012A00DCF9E06A1A91464D45B6413A1A7642921B9046120200D499E04D1BA9428941C71B49427A1A90469A463CE752460123002513400022F5E6280014
:4033000000F086FB20300300083B1F2B00DC39E72A002838824000259C4200DC3EE7264FE41A1740C0E60143481E81410022C9B210E7002E00D0F1E0621C94465205520DA3
:40334000012A00DCA0E01B4A944500D1C5E06918A94292413F185242D2194908D5070D4357086446A0E6134B9C4200D0D9E69BE611001F3CE1400C00202B00D180E040212F
:40338000CB1A9A4015436A1E95410027254300241FE763460200203BDA406346202B71D0402366469B1B98400143481E814111430022CFE6FF070000FFFF7FFFFFFF0F8047
:4033C000002C48D0CA4CA24200D1A2E07442A1468024240427434C46382C00DDDBE01F2C00DD44E14E462024A41B3E00A640A246B0464C462E00E640B44646466446264376
:403400005446A5406C1EA54134002C434D46EF400D1B28E04A4643464D461A4300D0A5E6002300240025DEE61F2A5ADC66462022921B060096409146B04662460E00D640E5
:40344000424616434A4691404A1E9141020060463143C240E4E63C002C435AD0F443A146002C52D14D1BA9428941C71B49427F1A14009A4675E69E4A944200D0C7E613E600
:4034800000227FE700208FE7002C00D0C8E03B002B4300D10FE103000B4300D104E66918A9429B413F185B42DF193B0200D41AE1904B0D001F406446F6E59A4689E63A003F
:4034C0002A43002C5CD1002A75D102000A4300D1CAE007000D009A46E6E564460022002581E662460600203AD6406246B046202A00D1B7E040226646921B904001434246F0
:40350000481E8141114300228AE6794CA24200D061E707000D0014009A46C5E5002C41D13C002C4378D0F443A146002C20D0704CA24271D04C46382C00DDB2E01F2C00DD31
:40354000BCE02026341BA2463C005646B4404E46A0462C00F440A446444666463443A4465446A54064466E1EB54125434C46E7406D188D4289413F184942CF19140056E607
:40358000002A2FD102000A4300D184E007000D009A46574C88E53D436F1EBD41ECB200270D1B60E7524CA24236D0744280263604A1463743BEE702000A4300D174E56A1AF9
:4035C00090464545B6413A1A7642921B9446120200D4F7E54D1BA9428941C71B49427F1A9A4661E502000A433AD0ED087C072C438025FA082D032A4208D0C7082F4205D163
:4036000045072C003A009A46C9080C43670FD200E5001743364C47E507000D00140043E53A002A4343D002000A4319D0ED087C072C438025FA082D032A4207D0C6082E4222
:4036400004D147073C003200C9080C43D700620FE50017439A46264C26E50022002544E5234C21E5002049E700230025BBE54C463E00203CE6404C46B446202C31D0402409
:403680004E46A61BB7403D436C1EA54164462C4300270D1BE7E6802200231203144C0025A1E53D436F1EBD410027EDB260E707000D000F4CF8E407000D00F5E44E463C0094
:4036C000203EF440A0464C46202C0ED040244E46A41BA7403D436F1EBD4144460027254346E70027CFE70D0073E50027F2E7C046FF070000FFFF7FFF0B0330B5134D1A0B65
:403700004B005B0DC90F0024AB4211DD104CA34210DC8024640322430E4CE41A1F2C0CDD0D48C31ADA4013005C42002900D11C00200030BD094BCC18FAE7E040084CA4463F
:4037400063449A4013000343EEE7C046FE0300001D0400003304000013040000FFFFFF7FEDFBFFFF70B5051E28D000F051F9154B154A1B1AD21A1F2A16DD2C00134A00257E
:40378000D21A94405A052403240B520D002124030B0D240B1B0523430D4C1205234013435B002800590870BD0B212C00081AC440954024035A05240B520DE7E7002200246B
:4037C000E4E7C0461E0400003304000013040000FFFF0F804200120E511C4302C9B270B55D0AC40F012915DDE02189008C466D071B0B6244002128000D0D2D052B431C4DE9
:4038000052052B40520813435B00E4075B082343190070BD002A15D1002D1FD0280000F0F7F80A281DDC0B232A001B1ADA4013000200153295400F4A1B03121A52051B0B6B
:40384000520DD7E7002D06D080221B0B120313436D07094ACEE7084A0023CBE700220023C8E703000B3B9D402B000025E3E7C046FFFF0F8089030000FF0700004B0070B589
:403880005E0D0C03751C640A420F6D052243C90FC4006D0D012D2ADD3B4BF318FE2B1ADC002B42DD8001451EA841D2001043620F0243500704D00F201040042800D004329E
:4038C0008020C004104021D00133FF2B03D09201520ADBB201E0FF2300225202520ADB0513435B00C9075B080B43180070BD002E07D01443EFD08020D20080040243FF23D2
:40390000D7E722430023002A03D00522D208FF2B03D05202520ADBB2DFE7002A32D08020C00302435202520AD7E71800173014DB8020000402431E20C01A1F280FDC25005B
:40394000124BF3189D406E1EB5419A402B0013432200C2401A430023ABE70023D5E702256D42EB1A1500DD40202809D0084BF3189A401443621E9441220000232A4398E7CD
:403980000022F6E70022A8E780FCFFFF82FCFFFFA2FCFFFF8446101C62468C46191C634600E0C0461FB500F0F5F8002801D40021C8421FBD10B500F049F84042013010BD66
:4039C00010B500F0E7F8002801DB002010BD012010BDC04610B500F0DDF8002801DD002010BD012010BDC04610B500F06FF8002801DC002010BD012010BDC04610B500F026
:403A000065F8002801DA002010BD012010BDC0461C2101231B04984201D3000C10391B0A984201D3000A08391B09984201D30009043902A2105C40187047C046040302025C
:403A4000010101010000000000000000F0B55F4656464D464446F0B41F035C00DB0F9A46194B0E034D00C90F8046360B6D0D8B4691463F0B640D9D4219D0134B9C421BD0E6
:403A80000123A54206D018003CBC90469946A246AB46F0BDBE42F6D1C845F4D1D34510D0002DF0D1304303005A1E9341EBE7310001230143E7D1E0E73A430123002AE2D131
:403AC000DEE70023DFE7C046FF070000F0B55F46444656464D46F0B41F033C0B2C4F0E034D00A3465C008446360B6D0DC90F9046640DDB0FBD422BD0254FBC422ED0002DB9
:403B00000ED130430700814678427841002C17D15F463A4314D14B460020002B0AD006E0002C02D15846024301D099421AD00123484218433CBC90469946A246AB46F0BD87
:403B40000028F2D058425841012240421043F1E737000743D0D002204042EBE75F461743CDD0F8E7A542E2DC05DB5E45DFD808D000205E45DED24842484101234042184308
:403B8000D8E7C445D3D80020C445F4D3D2E7C046FF070000F0B55F464D4644465646F0B41C03240BA4462F4C0F034D005E00C90F80463F0B6D0D8B469146760DDB0FA54268
:403BC00020D0284CA64222D0002D12D1384344424441002E20D0002C0DD05C42634101245B421C4320003CBC90469946A246AB46F0BD002E17D05B4519D05B465C42012313
:403C00001C43EFE7390002240143EBD1D9E7614602241143E6D1D7E761460A43DBD100240028DFD0E9E761460A43E4D1E5E7B54203DD01225C421443D4E7B542CDDB6745C5
:403C4000DBD809D000246745CCD259464C426141012449420C43C5E7C845CED80024C845F3D3BFE7FF070000014B18687047C046000100200E4B70B500251E000D4CE41AB8
:403C8000A410A54204D0AB00F35898470135F8E700F038F9084B00251E00084CE41AA410A54204D0AB00F35898470135F8E770BD103F0000103F0000103F0000183F0000D8
:403CC00010B5034B0100186800F004F810BDC04600010020032370B5CD1C9D43083506000C2D01D20C2501E0002D01DBA94202D90C23336048E0300000F05EF8234B1C68BA
:403D00001A002100002913D00B685B1B0DD40B2B02D90B60CC181EE08C4202D1636813601AE04B6863600C0016E00C004968E9E7174C2368002B03D1300000F02BF8206086
:403D40002900300000F026F8431C18D00323C41C9C43A0420DD12560300000F02EF8200007220B30231D9043C31A0ED05A42E2500BE0211A300000F00DF8431CEBD10C2370
:403D80003000336000F019F8002070BD4801002044010020002370B5064C050008002360FCF7C8FC431C03D12368002B00D02B6070BDC046E001002070477047000000005D
:403DC0001E1900004218000000190000D818000000190000CC18000000190000D81800004218000042180000CC180000D818000084190000841900008419000006190000A5
:403E00004218000042180000EC180000D6180000EC180000CC180000EC180000D61800004218000042180000CC180000D618000084190000841900008419000090190000FC
:403E40007C1C0000DA1B0000DA1B0000D81B00006E1C00006E1C0000641C0000D81B00006E1C0000641C00006E1C0000D81B0000741C0000741C0000741C0000FE1C0000F5
:403E800020270000EE250000F4260000E4250000F4260000FE260000F4260000E4250000EE250000EE250000FE260000E4250000DA250000DA250000DA250000502900005B
:403EC0004C2D00000C2C00000C2C00000A2C0000242D0000242D0000162D00000A2C0000242D0000162D0000242D00000A2C00002C2D00002C2D00002C2D00002C2F000007
:403F000043000000F8B5C046F8BC08BC9E467047C1010000AD070000F8B5C046F8BC08BC9E46704799010000383F00008000002088000000E000000000000000307500007E
:403F4000E8010020010000000000E02EC05D00001800000000366E010000000000000000000000000000000000000000000000000000000000000000003F00000000000010
:403F80000000000000000000000000000000000000000000000000000000000000000000000000000000000000000000000000000000000000000000A00000200000000041
:403FC00000000000000000000000000000000000000000000000000000000000000000000000000000000000000000000000000000000000000000000000000000000000C1
:0200000490303A
:02000000B63D0B
:0200000490402A
:1000000000000000000000000000000000000000F0
:0200000490501A
:0C0000000002190C11A900011920C7E62C
:0200000490600A
:0100000001FE
:00000001FF